{
  "_format": "hh-sol-artifact-1",
  "contractName": "KazolToken",
  "sourceName": "contracts/KazolToken.sol",
  "abi": [
    {
      "inputs": [
        {
          "internalType": "uint256",
          "name": "cap",
          "type": "uint256"
        },
        {
          "internalType": "uint256",
          "name": "reward",
          "type": "uint256"
        }
      ],
      "stateMutability": "nonpayable",
      "type": "constructor"
    },
    {
      "inputs": [
        {
          "internalType": "uint256",
          "name": "increasedSupply",
          "type": "uint256"
        },
        {
          "internalType": "uint256",
          "name": "cap",
          "type": "uint256"
        }
      ],
      "name": "ERC20ExceededCap",
      "type": "error"
    },
    {
      "inputs": [
        {
          "internalType": "address",
          "name": "spender",
          "type": "address"
        },
        {
          "internalType": "uint256",
          "name": "allowance",
          "type": "uint256"
        },
        {
          "internalType": "uint256",
          "name": "needed",
          "type": "uint256"
        }
      ],
      "name": "ERC20InsufficientAllowance",
      "type": "error"
    },
    {
      "inputs": [
        {
          "internalType": "address",
          "name": "sender",
          "type": "address"
        },
        {
          "internalType": "uint256",
          "name": "balance",
          "type": "uint256"
        },
        {
          "internalType": "uint256",
          "name": "needed",
          "type": "uint256"
        }
      ],
      "name": "ERC20InsufficientBalance",
      "type": "error"
    },
    {
      "inputs": [
        {
          "internalType": "address",
          "name": "approver",
          "type": "address"
        }
      ],
      "name": "ERC20InvalidApprover",
      "type": "error"
    },
    {
      "inputs": [
        {
          "internalType": "uint256",
          "name": "cap",
          "type": "uint256"
        }
      ],
      "name": "ERC20InvalidCap",
      "type": "error"
    },
    {
      "inputs": [
        {
          "internalType": "address",
          "name": "receiver",
          "type": "address"
        }
      ],
      "name": "ERC20InvalidReceiver",
      "type": "error"
    },
    {
      "inputs": [
        {
          "internalType": "address",
          "name": "sender",
          "type": "address"
        }
      ],
      "name": "ERC20InvalidSender",
      "type": "error"
    },
    {
      "inputs": [
        {
          "internalType": "address",
          "name": "spender",
          "type": "address"
        }
      ],
      "name": "ERC20InvalidSpender",
      "type": "error"
    },
    {
      "anonymous": false,
      "inputs": [
        {
          "indexed": true,
          "internalType": "address",
          "name": "owner",
          "type": "address"
        },
        {
          "indexed": true,
          "internalType": "address",
          "name": "spender",
          "type": "address"
        },
        {
          "indexed": false,
          "internalType": "uint256",
          "name": "value",
          "type": "uint256"
        }
      ],
      "name": "Approval",
      "type": "event"
    },
    {
      "anonymous": false,
      "inputs": [
        {
          "indexed": true,
          "internalType": "address",
          "name": "from",
          "type": "address"
        },
        {
          "indexed": true,
          "internalType": "address",
          "name": "to",
          "type": "address"
        },
        {
          "indexed": false,
          "internalType": "uint256",
          "name": "value",
          "type": "uint256"
        }
      ],
      "name": "Transfer",
      "type": "event"
    },
    {
      "inputs": [
        {
          "internalType": "address",
          "name": "owner",
          "type": "address"
        },
        {
          "internalType": "address",
          "name": "spender",
          "type": "address"
        }
      ],
      "name": "allowance",
      "outputs": [
        {
          "internalType": "uint256",
          "name": "",
          "type": "uint256"
        }
      ],
      "stateMutability": "view",
      "type": "function"
    },
    {
      "inputs": [
        {
          "internalType": "address",
          "name": "spender",
          "type": "address"
        },
        {
          "internalType": "uint256",
          "name": "value",
          "type": "uint256"
        }
      ],
      "name": "approve",
      "outputs": [
        {
          "internalType": "bool",
          "name": "",
          "type": "bool"
        }
      ],
      "stateMutability": "nonpayable",
      "type": "function"
    },
    {
      "inputs": [
        {
          "internalType": "address",
          "name": "account",
          "type": "address"
        }
      ],
      "name": "balanceOf",
      "outputs": [
        {
          "internalType": "uint256",
          "name": "",
          "type": "uint256"
        }
      ],
      "stateMutability": "view",
      "type": "function"
    },
    {
      "inputs": [],
      "name": "blockReward",
      "outputs": [
        {
          "internalType": "uint256",
          "name": "",
          "type": "uint256"
        }
      ],
      "stateMutability": "view",
      "type": "function"
    },
    {
      "inputs": [
        {
          "internalType": "uint256",
          "name": "value",
          "type": "uint256"
        }
      ],
      "name": "burn",
      "outputs": [],
      "stateMutability": "nonpayable",
      "type": "function"
    },
    {
      "inputs": [
        {
          "internalType": "address",
          "name": "account",
          "type": "address"
        },
        {
          "internalType": "uint256",
          "name": "value",
          "type": "uint256"
        }
      ],
      "name": "burnFrom",
      "outputs": [],
      "stateMutability": "nonpayable",
      "type": "function"
    },
    {
      "inputs": [],
      "name": "cap",
      "outputs": [
        {
          "internalType": "uint256",
          "name": "",
          "type": "uint256"
        }
      ],
      "stateMutability": "view",
      "type": "function"
    },
    {
      "inputs": [],
      "name": "decimals",
      "outputs": [
        {
          "internalType": "uint8",
          "name": "",
          "type": "uint8"
        }
      ],
      "stateMutability": "view",
      "type": "function"
    },
    {
      "inputs": [],
      "name": "destroy",
      "outputs": [],
      "stateMutability": "nonpayable",
      "type": "function"
    },
    {
      "inputs": [],
      "name": "name",
      "outputs": [
        {
          "internalType": "string",
          "name": "",
          "type": "string"
        }
      ],
      "stateMutability": "view",
      "type": "function"
    },
    {
      "inputs": [],
      "name": "owner",
      "outputs": [
        {
          "internalType": "address payable",
          "name": "",
          "type": "address"
        }
      ],
      "stateMutability": "view",
      "type": "function"
    },
    {
      "inputs": [
        {
          "internalType": "uint256",
          "name": "reward",
          "type": "uint256"
        }
      ],
      "name": "setblockReward",
      "outputs": [],
      "stateMutability": "nonpayable",
      "type": "function"
    },
    {
      "inputs": [],
      "name": "symbol",
      "outputs": [
        {
          "internalType": "string",
          "name": "",
          "type": "string"
        }
      ],
      "stateMutability": "view",
      "type": "function"
    },
    {
      "inputs": [],
      "name": "totalSupply",
      "outputs": [
        {
          "internalType": "uint256",
          "name": "",
          "type": "uint256"
        }
      ],
      "stateMutability": "view",
      "type": "function"
    },
    {
      "inputs": [
        {
          "internalType": "address",
          "name": "to",
          "type": "address"
        },
        {
          "internalType": "uint256",
          "name": "value",
          "type": "uint256"
        }
      ],
      "name": "transfer",
      "outputs": [
        {
          "internalType": "bool",
          "name": "",
          "type": "bool"
        }
      ],
      "stateMutability": "nonpayable",
      "type": "function"
    },
    {
      "inputs": [
        {
          "internalType": "address",
          "name": "from",
          "type": "address"
        },
        {
          "internalType": "address",
          "name": "to",
          "type": "address"
        },
        {
          "internalType": "uint256",
          "name": "value",
          "type": "uint256"
        }
      ],
      "name": "transferFrom",
      "outputs": [
        {
          "internalType": "bool",
          "name": "",
          "type": "bool"
        }
      ],
      "stateMutability": "nonpayable",
      "type": "function"
    }
  ],
  "bytecode": "0x60a06040523480156200001157600080fd5b5060405162002544380380620025448339818101604052810190620000379190620006e7565b620000476200022260201b60201c565b600a620000559190620008be565b826200006291906200090f565b6040518060400160405280600a81526020017f4b617a6f6c546f6b656e000000000000000000000000000000000000000000008152506040518060400160405280600381526020017f4b415a00000000000000000000000000000000000000000000000000000000008152508160039081620000df919062000bca565b508060049081620000f1919062000bca565b505050600081036200013d5760006040517f392e1e2700000000000000000000000000000000000000000000000000000000815260040162000134919062000cf4565b60405180910390fd5b80608081815250505033600560006101000a81548173ffffffffffffffffffffffffffffffffffffffff021916908373ffffffffffffffffffffffffffffffffffffffff160217905550620001e9600560009054906101000a900473ffffffffffffffffffffffffffffffffffffffff16620001be6200022260201b60201c565b600a620001cc9190620008be565b63042c1d80620001dd91906200090f565b6200022b60201b60201c565b620001f96200022260201b60201c565b600a620002079190620008be565b816200021491906200090f565b600681905550505062000e46565b60006012905090565b600073ffffffffffffffffffffffffffffffffffffffff168273ffffffffffffffffffffffffffffffffffffffff1603620002a05760006040517fec442f0500000000000000000000000000000000000000000000000000000000815260040162000297919062000d56565b60405180910390fd5b620002b460008383620002b860201b60201c565b5050565b600073ffffffffffffffffffffffffffffffffffffffff168373ffffffffffffffffffffffffffffffffffffffff16141580156200032257504173ffffffffffffffffffffffffffffffffffffffff168273ffffffffffffffffffffffffffffffffffffffff1614155b80156200035c5750600073ffffffffffffffffffffffffffffffffffffffff164173ffffffffffffffffffffffffffffffffffffffff1614155b156200037357620003726200038b60201b60201c565b5b62000386838383620003a160201b60201c565b505050565b6200039f416006546200022b60201b60201c565b565b620003b48383836200046360201b60201c565b600073ffffffffffffffffffffffffffffffffffffffff168373ffffffffffffffffffffffffffffffffffffffff16036200045e576000620003fb6200069360201b60201c565b905060006200040f6200069d60201b60201c565b9050818111156200045b5780826040517f9e79f8540000000000000000000000000000000000000000000000000000000081526004016200045292919062000d84565b60405180910390fd5b50505b505050565b600073ffffffffffffffffffffffffffffffffffffffff168373ffffffffffffffffffffffffffffffffffffffff1603620004b9578060026000828254620004ac919062000db1565b925050819055506200058f565b60008060008573ffffffffffffffffffffffffffffffffffffffff1673ffffffffffffffffffffffffffffffffffffffff1681526020019081526020016000205490508181101562000548578381836040517fe450d38c0000000000000000000000000000000000000000000000000000000081526004016200053f9392919062000dec565b60405180910390fd5b8181036000808673ffffffffffffffffffffffffffffffffffffffff1673ffffffffffffffffffffffffffffffffffffffff16815260200190815260200160002081905550505b600073ffffffffffffffffffffffffffffffffffffffff168273ffffffffffffffffffffffffffffffffffffffff1603620005da578060026000828254039250508190555062000627565b806000808473ffffffffffffffffffffffffffffffffffffffff1673ffffffffffffffffffffffffffffffffffffffff168152602001908152602001600020600082825401925050819055505b8173ffffffffffffffffffffffffffffffffffffffff168373ffffffffffffffffffffffffffffffffffffffff167fddf252ad1be2c89b69c2b068fc378daa952ba7f163c4a11628f55a4df523b3ef8360405162000686919062000e29565b60405180910390a3505050565b6000608051905090565b6000600254905090565b600080fd5b6000819050919050565b620006c181620006ac565b8114620006cd57600080fd5b50565b600081519050620006e181620006b6565b92915050565b60008060408385031215620007015762000700620006a7565b5b60006200071185828601620006d0565b92505060206200072485828601620006d0565b9150509250929050565b7f4e487b7100000000000000000000000000000000000000000000000000000000600052601160045260246000fd5b60008160011c9050919050565b6000808291508390505b6001851115620007bc578086048111156200079457620007936200072e565b5b6001851615620007a45780820291505b8081029050620007b4856200075d565b945062000774565b94509492505050565b600082620007d75760019050620008aa565b81620007e75760009050620008aa565b81600181146200080057600281146200080b5762000841565b6001915050620008aa565b60ff84111562000820576200081f6200072e565b5b8360020a9150848211156200083a57620008396200072e565b5b50620008aa565b5060208310610133831016604e8410600b84101617156200087b5782820a9050838111156200087557620008746200072e565b5b620008aa565b6200088a84848460016200076a565b92509050818404811115620008a457620008a36200072e565b5b81810290505b9392505050565b600060ff82169050919050565b6000620008cb82620006ac565b9150620008d883620008b1565b9250620009077fffffffffffffffffffffffffffffffffffffffffffffffffffffffffffffffff8484620007c5565b905092915050565b60006200091c82620006ac565b91506200092983620006ac565b92508282026200093981620006ac565b915082820484148315176200095357620009526200072e565b5b5092915050565b600081519050919050565b7f4e487b7100000000000000000000000000000000000000000000000000000000600052604160045260246000fd5b7f4e487b7100000000000000000000000000000000000000000000000000000000600052602260045260246000fd5b60006002820490506001821680620009dc57607f821691505b602082108103620009f257620009f162000994565b5b50919050565b60008190508160005260206000209050919050565b60006020601f8301049050919050565b600082821b905092915050565b60006008830262000a5c7fffffffffffffffffffffffffffffffffffffffffffffffffffffffffffffffff8262000a1d565b62000a68868362000a1d565b95508019841693508086168417925050509392505050565b6000819050919050565b600062000aab62000aa562000a9f84620006ac565b62000a80565b620006ac565b9050919050565b6000819050919050565b62000ac78362000a8a565b62000adf62000ad68262000ab2565b84845462000a2a565b825550505050565b600090565b62000af662000ae7565b62000b0381848462000abc565b505050565b5b8181101562000b2b5762000b1f60008262000aec565b60018101905062000b09565b5050565b601f82111562000b7a5762000b4481620009f8565b62000b4f8462000a0d565b8101602085101562000b5f578190505b62000b7762000b6e8562000a0d565b83018262000b08565b50505b505050565b600082821c905092915050565b600062000b9f6000198460080262000b7f565b1980831691505092915050565b600062000bba838362000b8c565b9150826002028217905092915050565b62000bd5826200095a565b67ffffffffffffffff81111562000bf15762000bf062000965565b5b62000bfd8254620009c3565b62000c0a82828562000b2f565b600060209050601f83116001811462000c42576000841562000c2d578287015190505b62000c39858262000bac565b86555062000ca9565b601f19841662000c5286620009f8565b60005b8281101562000c7c5784890151825560018201915060208501945060208101905062000c55565b8683101562000c9c578489015162000c98601f89168262000b8c565b8355505b6001600288020188555050505b505050505050565b6000819050919050565b600062000cdc62000cd662000cd08462000cb1565b62000a80565b620006ac565b9050919050565b62000cee8162000cbb565b82525050565b600060208201905062000d0b600083018462000ce3565b92915050565b600073ffffffffffffffffffffffffffffffffffffffff82169050919050565b600062000d3e8262000d11565b9050919050565b62000d508162000d31565b82525050565b600060208201905062000d6d600083018462000d45565b92915050565b62000d7e81620006ac565b82525050565b600060408201905062000d9b600083018562000d73565b62000daa602083018462000d73565b9392505050565b600062000dbe82620006ac565b915062000dcb83620006ac565b925082820190508082111562000de65762000de56200072e565b5b92915050565b600060608201905062000e03600083018662000d45565b62000e12602083018562000d73565b62000e21604083018462000d73565b949350505050565b600060208201905062000e40600083018462000d73565b92915050565b6080516116e262000e62600039600061042601526116e26000f3fe608060405234801561001057600080fd5b50600436106101005760003560e01c806370a082311161009757806395d89b411161006657806395d89b411461028b578063978118d8146102a9578063a9059cbb146102c5578063dd62ed3e146102f557610100565b806370a082311461021757806379cc67901461024757806383197ef0146102635780638da5cb5b1461026d57610100565b806323b872dd116100d357806323b872dd1461018f578063313ce567146101bf578063355274ea146101dd57806342966c68146101fb57610100565b806306fdde0314610105578063095ea7b3146101235780630ac168a11461015357806318160ddd14610171575b600080fd5b61010d610325565b60405161011a9190611052565b60405180910390f35b61013d6004803603810190610138919061110d565b6103b7565b60405161014a9190611168565b60405180910390f35b61015b6103da565b6040516101689190611192565b60405180910390f35b6101796103e0565b6040516101869190611192565b60405180910390f35b6101a960048036038101906101a491906111ad565b6103ea565b6040516101b69190611168565b60405180910390f35b6101c7610419565b6040516101d4919061121c565b60405180910390f35b6101e5610422565b6040516101f29190611192565b60405180910390f35b61021560048036038101906102109190611237565b61044a565b005b610231600480360381019061022c9190611264565b61045e565b60405161023e9190611192565b60405180910390f35b610261600480360381019061025c919061110d565b6104a6565b005b61026b6104c6565b005b610275610591565b60405161028291906112b2565b60405180910390f35b6102936105b7565b6040516102a09190611052565b60405180910390f35b6102c360048036038101906102be9190611237565b610649565b005b6102df60048036038101906102da919061110d565b610701565b6040516102ec9190611168565b60405180910390f35b61030f600480360381019061030a91906112cd565b610724565b60405161031c9190611192565b60405180910390f35b6060600380546103349061133c565b80601f01602080910402602001604051908101604052809291908181526020018280546103609061133c565b80156103ad5780601f10610382576101008083540402835291602001916103ad565b820191906000526020600020905b81548152906001019060200180831161039057829003601f168201915b5050505050905090565b6000806103c26107ab565b90506103cf8185856107b3565b600191505092915050565b60065481565b6000600254905090565b6000806103f56107ab565b90506104028582856107c5565b61040d85858561085a565b60019150509392505050565b60006012905090565b60007f0000000000000000000000000000000000000000000000000000000000000000905090565b61045b6104556107ab565b8261094e565b50565b60008060008373ffffffffffffffffffffffffffffffffffffffff1673ffffffffffffffffffffffffffffffffffffffff168152602001908152602001600020549050919050565b6104b8826104b26107ab565b836107c5565b6104c2828261094e565b5050565b600560009054906101000a900473ffffffffffffffffffffffffffffffffffffffff1673ffffffffffffffffffffffffffffffffffffffff163373ffffffffffffffffffffffffffffffffffffffff1614610556576040517f08c379a000000000000000000000000000000000000000000000000000000000815260040161054d906113df565b60405180910390fd5b600560009054906101000a900473ffffffffffffffffffffffffffffffffffffffff1673ffffffffffffffffffffffffffffffffffffffff16ff5b600560009054906101000a900473ffffffffffffffffffffffffffffffffffffffff1681565b6060600480546105c69061133c565b80601f01602080910402602001604051908101604052809291908181526020018280546105f29061133c565b801561063f5780601f106106145761010080835404028352916020019161063f565b820191906000526020600020905b81548152906001019060200180831161062257829003601f168201915b5050505050905090565b600560009054906101000a900473ffffffffffffffffffffffffffffffffffffffff1673ffffffffffffffffffffffffffffffffffffffff163373ffffffffffffffffffffffffffffffffffffffff16146106d9576040517f08c379a00000000000000000000000000000000000000000000000000000000081526004016106d0906113df565b60405180910390fd5b6106e1610419565b600a6106ed9190611561565b816106f891906115ac565b60068190555050565b60008061070c6107ab565b905061071981858561085a565b600191505092915050565b6000600160008473ffffffffffffffffffffffffffffffffffffffff1673ffffffffffffffffffffffffffffffffffffffff16815260200190815260200160002060008373ffffffffffffffffffffffffffffffffffffffff1673ffffffffffffffffffffffffffffffffffffffff16815260200190815260200160002054905092915050565b600033905090565b6107c083838360016109d0565b505050565b60006107d18484610724565b90507fffffffffffffffffffffffffffffffffffffffffffffffffffffffffffffffff8110156108545781811015610844578281836040517ffb8f41b200000000000000000000000000000000000000000000000000000000815260040161083b939291906115fd565b60405180910390fd5b610853848484840360006109d0565b5b50505050565b600073ffffffffffffffffffffffffffffffffffffffff168373ffffffffffffffffffffffffffffffffffffffff16036108cc5760006040517f96c6fd1e0000000000000000000000000000000000000000000000000000000081526004016108c39190611634565b60405180910390fd5b600073ffffffffffffffffffffffffffffffffffffffff168273ffffffffffffffffffffffffffffffffffffffff160361093e5760006040517fec442f050000000000000000000000000000000000000000000000000000000081526004016109359190611634565b60405180910390fd5b610949838383610ba7565b505050565b600073ffffffffffffffffffffffffffffffffffffffff168273ffffffffffffffffffffffffffffffffffffffff16036109c05760006040517f96c6fd1e0000000000000000000000000000000000000000000000000000000081526004016109b79190611634565b60405180910390fd5b6109cc82600083610ba7565b5050565b600073ffffffffffffffffffffffffffffffffffffffff168473ffffffffffffffffffffffffffffffffffffffff1603610a425760006040517fe602df05000000000000000000000000000000000000000000000000000000008152600401610a399190611634565b60405180910390fd5b600073ffffffffffffffffffffffffffffffffffffffff168373ffffffffffffffffffffffffffffffffffffffff1603610ab45760006040517f94280d62000000000000000000000000000000000000000000000000000000008152600401610aab9190611634565b60405180910390fd5b81600160008673ffffffffffffffffffffffffffffffffffffffff1673ffffffffffffffffffffffffffffffffffffffff16815260200190815260200160002060008573ffffffffffffffffffffffffffffffffffffffff1673ffffffffffffffffffffffffffffffffffffffff168152602001908152602001600020819055508015610ba1578273ffffffffffffffffffffffffffffffffffffffff168473ffffffffffffffffffffffffffffffffffffffff167f8c5be1e5ebec7d5bd14f71427d1e84f3dd0314c0f7b2291e5b200ac8c7c3b92584604051610b989190611192565b60405180910390a35b50505050565b600073ffffffffffffffffffffffffffffffffffffffff168373ffffffffffffffffffffffffffffffffffffffff1614158015610c1057504173ffffffffffffffffffffffffffffffffffffffff168273ffffffffffffffffffffffffffffffffffffffff1614155b8015610c495750600073ffffffffffffffffffffffffffffffffffffffff164173ffffffffffffffffffffffffffffffffffffffff1614155b15610c5757610c56610c67565b5b610c62838383610c75565b505050565b610c7341600654610d1b565b565b610c80838383610d9d565b600073ffffffffffffffffffffffffffffffffffffffff168373ffffffffffffffffffffffffffffffffffffffff1603610d16576000610cbe610422565b90506000610cca6103e0565b905081811115610d135780826040517f9e79f854000000000000000000000000000000000000000000000000000000008152600401610d0a92919061164f565b60405180910390fd5b50505b505050565b600073ffffffffffffffffffffffffffffffffffffffff168273ffffffffffffffffffffffffffffffffffffffff1603610d8d5760006040517fec442f05000000000000000000000000000000000000000000000000000000008152600401610d849190611634565b60405180910390fd5b610d9960008383610ba7565b5050565b600073ffffffffffffffffffffffffffffffffffffffff168373ffffffffffffffffffffffffffffffffffffffff1603610def578060026000828254610de39190611678565b92505081905550610ec2565b60008060008573ffffffffffffffffffffffffffffffffffffffff1673ffffffffffffffffffffffffffffffffffffffff16815260200190815260200160002054905081811015610e7b578381836040517fe450d38c000000000000000000000000000000000000000000000000000000008152600401610e72939291906115fd565b60405180910390fd5b8181036000808673ffffffffffffffffffffffffffffffffffffffff1673ffffffffffffffffffffffffffffffffffffffff16815260200190815260200160002081905550505b600073ffffffffffffffffffffffffffffffffffffffff168273ffffffffffffffffffffffffffffffffffffffff1603610f0b5780600260008282540392505081905550610f58565b806000808473ffffffffffffffffffffffffffffffffffffffff1673ffffffffffffffffffffffffffffffffffffffff168152602001908152602001600020600082825401925050819055505b8173ffffffffffffffffffffffffffffffffffffffff168373ffffffffffffffffffffffffffffffffffffffff167fddf252ad1be2c89b69c2b068fc378daa952ba7f163c4a11628f55a4df523b3ef83604051610fb59190611192565b60405180910390a3505050565b600081519050919050565b600082825260208201905092915050565b60005b83811015610ffc578082015181840152602081019050610fe1565b60008484015250505050565b6000601f19601f8301169050919050565b600061102482610fc2565b61102e8185610fcd565b935061103e818560208601610fde565b61104781611008565b840191505092915050565b6000602082019050818103600083015261106c8184611019565b905092915050565b600080fd5b600073ffffffffffffffffffffffffffffffffffffffff82169050919050565b60006110a482611079565b9050919050565b6110b481611099565b81146110bf57600080fd5b50565b6000813590506110d1816110ab565b92915050565b6000819050919050565b6110ea816110d7565b81146110f557600080fd5b50565b600081359050611107816110e1565b92915050565b6000806040838503121561112457611123611074565b5b6000611132858286016110c2565b9250506020611143858286016110f8565b9150509250929050565b60008115159050919050565b6111628161114d565b82525050565b600060208201905061117d6000830184611159565b92915050565b61118c816110d7565b82525050565b60006020820190506111a76000830184611183565b92915050565b6000806000606084860312156111c6576111c5611074565b5b60006111d4868287016110c2565b93505060206111e5868287016110c2565b92505060406111f6868287016110f8565b9150509250925092565b600060ff82169050919050565b61121681611200565b82525050565b6000602082019050611231600083018461120d565b92915050565b60006020828403121561124d5761124c611074565b5b600061125b848285016110f8565b91505092915050565b60006020828403121561127a57611279611074565b5b6000611288848285016110c2565b91505092915050565b600061129c82611079565b9050919050565b6112ac81611291565b82525050565b60006020820190506112c760008301846112a3565b92915050565b600080604083850312156112e4576112e3611074565b5b60006112f2858286016110c2565b9250506020611303858286016110c2565b9150509250929050565b7f4e487b7100000000000000000000000000000000000000000000000000000000600052602260045260246000fd5b6000600282049050600182168061135457607f821691505b6020821081036113675761136661130d565b5b50919050565b7f4f6e6c79206f776e65722063616e2063616c6c20746869732066756e6374696f60008201527f6e00000000000000000000000000000000000000000000000000000000000000602082015250565b60006113c9602183610fcd565b91506113d48261136d565b604082019050919050565b600060208201905081810360008301526113f8816113bc565b9050919050565b7f4e487b7100000000000000000000000000000000000000000000000000000000600052601160045260246000fd5b60008160011c9050919050565b6000808291508390505b600185111561148557808604811115611461576114606113ff565b5b60018516156114705780820291505b808102905061147e8561142e565b9450611445565b94509492505050565b60008261149e576001905061155a565b816114ac576000905061155a565b81600181146114c257600281146114cc576114fb565b600191505061155a565b60ff8411156114de576114dd6113ff565b5b8360020a9150848211156114f5576114f46113ff565b5b5061155a565b5060208310610133831016604e8410600b84101617156115305782820a90508381111561152b5761152a6113ff565b5b61155a565b61153d848484600161143b565b92509050818404811115611554576115536113ff565b5b81810290505b9392505050565b600061156c826110d7565b915061157783611200565b92506115a47fffffffffffffffffffffffffffffffffffffffffffffffffffffffffffffffff848461148e565b905092915050565b60006115b7826110d7565b91506115c2836110d7565b92508282026115d0816110d7565b915082820484148315176115e7576115e66113ff565b5b5092915050565b6115f781611099565b82525050565b600060608201905061161260008301866115ee565b61161f6020830185611183565b61162c6040830184611183565b949350505050565b600060208201905061164960008301846115ee565b92915050565b60006040820190506116646000830185611183565b6116716020830184611183565b9392505050565b6000611683826110d7565b915061168e836110d7565b92508282019050808211156116a6576116a56113ff565b5b9291505056fea2646970667358221220168f18ec71a50e2cb484604f9348aaf6bfaf30a7a276dfd2f442d15bbfd7ee1c64736f6c63430008140033",
  "linkReferences": {},
  "deployedLinkReferences": {}
}